{
  "contractName": "BNB333",
  "abi": [
    {
      "inputs": [],
      "payable": false,
      "stateMutability": "nonpayable",
      "type": "constructor"
    },
    {
      "anonymous": false,
      "inputs": [
        {
          "indexed": true,
          "internalType": "address",
          "name": "_address",
          "type": "address"
        },
        {
          "indexed": false,
          "internalType": "uint256",
          "name": "plan",
          "type": "uint256"
        }
      ],
      "name": "onInvest",
      "type": "event"
    },
    {
      "anonymous": false,
      "inputs": [
        {
          "indexed": true,
          "internalType": "address",
          "name": "_address",
          "type": "address"
        },
        {
          "indexed": false,
          "internalType": "uint256",
          "name": "_plan",
          "type": "uint256"
        },
        {
          "indexed": false,
          "internalType": "uint256",
          "name": "_stackId",
          "type": "uint256"
        }
      ],
      "name": "onWithdrawProfit",
      "type": "event"
    },
    {
      "constant": true,
      "inputs": [],
      "name": "COMMISSION_RATE",
      "outputs": [
        {
          "internalType": "uint256",
          "name": "",
          "type": "uint256"
        }
      ],
      "payable": false,
      "stateMutability": "view",
      "type": "function"
    },
    {
      "constant": true,
      "inputs": [],
      "name": "DEVELOPER_RATE",
      "outputs": [
        {
          "internalType": "uint256",
          "name": "",
          "type": "uint256"
        }
      ],
      "payable": false,
      "stateMutability": "view",
      "type": "function"
    },
    {
      "constant": true,
      "inputs": [],
      "name": "MARKETING_RATE",
      "outputs": [
        {
          "internalType": "uint256",
          "name": "",
          "type": "uint256"
        }
      ],
      "payable": false,
      "stateMutability": "view",
      "type": "function"
    },
    {
      "constant": true,
      "inputs": [],
      "name": "MAX_INVESTORS",
      "outputs": [
        {
          "internalType": "uint256",
          "name": "",
          "type": "uint256"
        }
      ],
      "payable": false,
      "stateMutability": "view",
      "type": "function"
    },
    {
      "constant": true,
      "inputs": [],
      "name": "PENALTY_STEP",
      "outputs": [
        {
          "internalType": "uint256",
          "name": "",
          "type": "uint256"
        }
      ],
      "payable": false,
      "stateMutability": "view",
      "type": "function"
    },
    {
      "constant": true,
      "inputs": [],
      "name": "PERCENTS_DIVIDER",
      "outputs": [
        {
          "internalType": "uint256",
          "name": "",
          "type": "uint256"
        }
      ],
      "payable": false,
      "stateMutability": "view",
      "type": "function"
    },
    {
      "constant": true,
      "inputs": [],
      "name": "REFERRER_CODE",
      "outputs": [
        {
          "internalType": "uint256",
          "name": "",
          "type": "uint256"
        }
      ],
      "payable": false,
      "stateMutability": "view",
      "type": "function"
    },
    {
      "constant": true,
      "inputs": [],
      "name": "RESERVE_RATE",
      "outputs": [
        {
          "internalType": "uint256",
          "name": "",
          "type": "uint256"
        }
      ],
      "payable": false,
      "stateMutability": "view",
      "type": "function"
    },
    {
      "constant": true,
      "inputs": [
        {
          "internalType": "address",
          "name": "",
          "type": "address"
        }
      ],
      "name": "address2index",
      "outputs": [
        {
          "internalType": "uint256",
          "name": "",
          "type": "uint256"
        }
      ],
      "payable": false,
      "stateMutability": "view",
      "type": "function"
    },
    {
      "constant": true,
      "inputs": [],
      "name": "developerAccount",
      "outputs": [
        {
          "internalType": "address payable",
          "name": "",
          "type": "address"
        }
      ],
      "payable": false,
      "stateMutability": "view",
      "type": "function"
    },
    {
      "constant": true,
      "inputs": [
        {
          "internalType": "uint256",
          "name": "",
          "type": "uint256"
        }
      ],
      "name": "index2Investor",
      "outputs": [
        {
          "internalType": "address payable",
          "name": "addr",
          "type": "address"
        },
        {
          "internalType": "uint256",
          "name": "referrer",
          "type": "uint256"
        }
      ],
      "payable": false,
      "stateMutability": "view",
      "type": "function"
    },
    {
      "constant": true,
      "inputs": [
        {
          "internalType": "uint256",
          "name": "",
          "type": "uint256"
        }
      ],
      "name": "index2Plan",
      "outputs": [
        {
          "internalType": "uint256",
          "name": "amount",
          "type": "uint256"
        }
      ],
      "payable": false,
      "stateMutability": "view",
      "type": "function"
    },
    {
      "constant": true,
      "inputs": [
        {
          "internalType": "uint256",
          "name": "",
          "type": "uint256"
        }
      ],
      "name": "index2Stack",
      "outputs": [
        {
          "internalType": "uint8",
          "name": "plan",
          "type": "uint8"
        },
        {
          "internalType": "uint256",
          "name": "startDate",
          "type": "uint256"
        },
        {
          "internalType": "bool",
          "name": "finished",
          "type": "bool"
        }
      ],
      "payable": false,
      "stateMutability": "view",
      "type": "function"
    },
    {
      "constant": true,
      "inputs": [],
      "name": "insuranceFunds",
      "outputs": [
        {
          "internalType": "uint256",
          "name": "",
          "type": "uint256"
        }
      ],
      "payable": false,
      "stateMutability": "view",
      "type": "function"
    },
    {
      "constant": true,
      "inputs": [],
      "name": "latestReferredCode",
      "outputs": [
        {
          "internalType": "uint256",
          "name": "",
          "type": "uint256"
        }
      ],
      "payable": false,
      "stateMutability": "view",
      "type": "function"
    },
    {
      "constant": true,
      "inputs": [],
      "name": "latestStackId",
      "outputs": [
        {
          "internalType": "uint256",
          "name": "",
          "type": "uint256"
        }
      ],
      "payable": false,
      "stateMutability": "view",
      "type": "function"
    },
    {
      "constant": true,
      "inputs": [],
      "name": "marketingAccount",
      "outputs": [
        {
          "internalType": "address payable",
          "name": "",
          "type": "address"
        }
      ],
      "payable": false,
      "stateMutability": "view",
      "type": "function"
    },
    {
      "constant": true,
      "inputs": [],
      "name": "reserveAccount",
      "outputs": [
        {
          "internalType": "address payable",
          "name": "",
          "type": "address"
        }
      ],
      "payable": false,
      "stateMutability": "view",
      "type": "function"
    },
    {
      "constant": true,
      "inputs": [],
      "name": "totalStaked",
      "outputs": [
        {
          "internalType": "uint256",
          "name": "",
          "type": "uint256"
        }
      ],
      "payable": false,
      "stateMutability": "view",
      "type": "function"
    },
    {
      "constant": false,
      "inputs": [
        {
          "internalType": "uint256",
          "name": "_stackId",
          "type": "uint256"
        }
      ],
      "name": "withdrawProfit",
      "outputs": [],
      "payable": false,
      "stateMutability": "nonpayable",
      "type": "function"
    },
    {
      "constant": false,
      "inputs": [
        {
          "internalType": "uint8",
          "name": "_plan",
          "type": "uint8"
        },
        {
          "internalType": "uint256",
          "name": "_referral",
          "type": "uint256"
        }
      ],
      "name": "invest",
      "outputs": [],
      "payable": true,
      "stateMutability": "payable",
      "type": "function"
    },
    {
      "constant": true,
      "inputs": [
        {
          "internalType": "uint256",
          "name": "_indexStack",
          "type": "uint256"
        }
      ],
      "name": "getInfoStack",
      "outputs": [
        {
          "internalType": "uint256",
          "name": "",
          "type": "uint256"
        },
        {
          "internalType": "uint256[]",
          "name": "",
          "type": "uint256[]"
        }
      ],
      "payable": false,
      "stateMutability": "view",
      "type": "function"
    }
  ],
  "bytecode": "0x608060405234801561001057600080fd5b506100226001600160e01b0361003316565b6103e8600f556113886010556100c8565b60408051602080820183526703782dace9d9000091829052600991909155815180820183526706f05b59d3b2000090819052600a5581518082018352670de0b6b3a764000090819052600b5581518082018352674563918244f4000090819052600c5581518082018352678ac7230489e8000090819052600d5581519081019091526802b5e3af16b188000090819052600e55565b61101c806100d76000396000f3fe6080604052600436106101355760003560e01c806383ac44e6116100ab578063b36deed01161006f578063b36deed0146103df578063d6a63c9f146101d3578063d82a2bea146103f4578063dc184e701461041e578063f596474214610433578063f6ec91d51461044857610135565b806383ac44e61461033257806383b6cc1614610363578063a14951b914610378578063a62e64a3146103a2578063ae08e812146103ca57610135565b806328e7cef5116100fd57806328e7cef5146101d35780632eae46ae146101e85780634bda51ea1461026d5780634f437b82146102bb5780636a34480b14610308578063817b1cd21461031d57610135565b806301c234a81461013a57806314dd60ce146101615780631a454ea6146101765780631e2575c31461018b57806325ccbc43146101be575b600080fd5b34801561014657600080fd5b5061014f61045d565b60408051918252519081900360200190f35b34801561016d57600080fd5b5061014f610463565b34801561018257600080fd5b5061014f610469565b34801561019757600080fd5b5061014f600480360360208110156101ae57600080fd5b50356001600160a01b031661046e565b3480156101ca57600080fd5b5061014f610480565b3480156101df57600080fd5b5061014f610486565b3480156101f457600080fd5b506102126004803603602081101561020b57600080fd5b503561048c565b6040518083815260200180602001828103825283818151815260200191508051906020019060200280838360005b83811015610258578181015183820152602001610240565b50505050905001935050505060405180910390f35b34801561027957600080fd5b506102976004803603602081101561029057600080fd5b5035610502565b6040805160ff90941684526020840192909252151582820152519081900360600190f35b3480156102c757600080fd5b506102e5600480360360208110156102de57600080fd5b5035610528565b604080516001600160a01b03909316835260208301919091528051918290030190f35b34801561031457600080fd5b5061014f61054d565b34801561032957600080fd5b5061014f610552565b34801561033e57600080fd5b50610347610558565b604080516001600160a01b039092168252519081900360200190f35b34801561036f57600080fd5b5061014f610567565b34801561038457600080fd5b5061014f6004803603602081101561039b57600080fd5b503561056d565b6103c8600480360360408110156103b857600080fd5b5060ff813516906020013561057f565b005b3480156103d657600080fd5b5061014f6106da565b3480156103eb57600080fd5b5061014f6106e0565b34801561040057600080fd5b506103c86004803603602081101561041757600080fd5b50356106e6565b34801561042a57600080fd5b5061034761096a565b34801561043f57600080fd5b5061014f610979565b34801561045457600080fd5b5061034761097e565b6103e881565b600f5481565b609681565b60076020526000908152604090205481565b610fa081565b61019081565b600081815260086020908152604080832080546001909101805483518186028101860190945280845260609460ff9093169391928391908301828280156104f257602002820191906000526020600020905b8154815260200190600101908083116104de575b5050505050905091509150915091565b60086020526000908152604090208054600282015460039092015460ff91821692911683565b600560205260009081526040902080546001909101546001600160a01b039091169082565b600381565b60035481565b6001546001600160a01b031681565b61012c81565b60066020526000908152604090205481565b60098260ff166006811061058f57fe5b015434146105ce5760405162461bcd60e51b8152600401808060200182810382526022815260200180610f896022913960400191505060405180910390fd5b336000908152600760205260409020548061069157600f543360008181526007602090815260409182902084905581516060810183529283528201929092528151600680825260e08201845291928301918160200160208202803883395050509052600f54600090815260056020908152604091829020835181546001600160a01b0319166001600160a01b039091161781558382015160018201559183015180516106809260028501920190610ed3565b5050600f8054600181019091559150505b61069c83838361098d565b6040805160ff85168152905133917f9a7b89cf778462f98a9b59f99121c720927a5c37ffaaba0346f77326622a8aeb919081900360200190a2505050565b60105481565b60045481565b336000908152600760209081526040808320548484526008909252822060010180549192909161071257fe5b9060005260206000200154146107595760405162461bcd60e51b815260040180806020018281038252603d815260200180610fab603d913960400191505060405180910390fd5b60008181526008602052604081206003808201805460ff19166001179055905461079c919060099060ff166006811061078e57fe5b01549063ffffffff610ba216565b905060006107c36103e86107b784609663ffffffff610ba216565b9063ffffffff610c0416565b905060006107df6103e86107b78461019063ffffffff610ba216565b905060006107fb6103e86107b78561012c63ffffffff610ba216565b905060006108176103e86107b78661019063ffffffff610ba216565b604051909150339086156108fc029087906000818181858888f19350505050158015610847573d6000803e3d6000fd5b50600080546040516001600160a01b039091169185156108fc02918691818181858888f19350505050158015610881573d6000803e3d6000fd5b506002546040516001600160a01b039091169083156108fc029084906000818181858888f193505050501580156108bc573d6000803e3d6000fd5b506001546040516001600160a01b039091169082156108fc029083906000818181858888f193505050501580156108f7573d6000803e3d6000fd5b506000868152600860205260409020546109149060ff1687610c6e565b60008681526008602090815260409182902054825160ff9091168152908101889052815133927f6550e5100cfbe5bb988efd8bf7e9c8a453414cc37de35aa443e11d0389055d32928290030190a2505050505050565b6002546001600160a01b031681565b60fa81565b6000546001600160a01b031681565b81610aa457604080516080808201835260ff8616825282516003808252918101909352909160208084019290820160608038833950505081524260208083019190915260006040928301819052601054815260088252919091208251815460ff191660ff9091161781558282015180519192610a1192600185019290910190610ed3565b5060408281015160028301556060909201516003909101805460ff1916911515919091179055601054600090815260086020529081206001018054839290610a5557fe5b9060005260206000200181905550601054600560008381526020019081526020016000206002018460ff1681548110610a8a57fe5b600091825260209091200155601080546001019055610b82565b6103e8821015610ae55760405162461bcd60e51b815260040180806020018281038252602c815260200180610f3c602c913960400191505060405180910390fd5b60008281526005602052604081206002018054600891839160ff8816908110610b0a57fe5b90600052602060002001548152602001908152602001600020905060005b6001820154811015610b7f57816001018181548110610b4357fe5b906000526020600020015460001415610b775782826001018281548110610b6657fe5b600091825260209091200155610b7f565b600101610b28565b50505b60098360ff1660068110610b9257fe5b0154600380549091019055505050565b600082610bb157506000610bfe565b82820282848281610bbe57fe5b0414610bfb5760405162461bcd60e51b8152600401808060200182810382526021815260200180610f686021913960400191505060405180910390fd5b90505b92915050565b6000808211610c5a576040805162461bcd60e51b815260206004820152601a60248201527f536166654d6174683a206469766973696f6e206279207a65726f000000000000604482015290519081900360640190fd5b6000828481610c6557fe5b04949350505050565b3360009081526007602090815260408083205483526005909152812060028101805491929160ff8616908110610ca057fe5b906000526020600020018190555060405180608001604052808460ff1681526020016003604051908082528060200260200182016040528015610ced578160200160208202803883390190505b5081524260208083019190915260006040928301819052601054815260088252919091208251815460ff191660ff9091161781558282015180519192610d3b92600185019290910190610ed3565b5060408281015160028301556060909201516003909101805460ff19169115159190911790556000838152600860205220600190810180549091908110610d7e57fe5b9060005260206000200154600860006010548152602001908152602001600020600101600081548110610dad57fe5b60009182526020918290200191909155601080546001019055604080516080808201835260ff87168252825160038082529181019093529092838101929190820160608038833950505081524260208083019190915260006040928301819052601054815260088252919091208251815460ff191660ff9091161781558282015180519192610e4492600185019290910190610ed3565b506040828101516002838101919091556060909301516003909201805460ff191692151592909217909155600084815260086020522060010180549091908110610e8a57fe5b9060005260206000200154600860006010548152602001908152602001600020600101600081548110610eb957fe5b600091825260209091200155505060108054600101905550565b828054828255906000526020600020908101928215610f0e579160200282015b82811115610f0e578251825591602001919060010190610ef3565b50610f1a929150610f1e565b5090565b610f3891905b80821115610f1a5760008155600101610f24565b9056fe54686520696e766573746f722077686f20726566657272656420796f7520646f6573206e6f74206578697374536166654d6174683a206d756c7469706c69636174696f6e206f766572666c6f77416d6f756e74206f74686572207468616e20726571756972656420627920706c616e4f6e6c792074686520666972737420696e766573746f72206f6e2074686520737461636b2063616e207769746864726177207468652070726f6669742ea265627a7a72315820322bcf29435c62639db7f049b9fbf2000a46fc5596fda2a61d2b0449c8610c9b64736f6c63430005100032",
  "source": "// SPDX-License-Identifier: MIT\npragma solidity >=0.5.16;\n\ncontract BNB333 {\n    using SafeMath for uint256;\n    \n    uint256 public constant REFERRER_CODE = 4000;\n    uint256 public constant PENALTY_STEP = 250;\n    uint256 public constant PERCENTS_DIVIDER = 1000;\n    uint256 public constant MAX_INVESTORS = 3;\n    uint256 public constant COMMISSION_RATE = 150;\n    uint256 public constant DEVELOPER_RATE = 400;\n    uint256 public constant RESERVE_RATE = 300;\n    uint256 public constant MARKETING_RATE = 400;\n    \n    address payable public developerAccount;\n    address payable public marketingAccount;\n    address payable public reserveAccount;\n    uint256 public totalStaked;\n    uint256 public insuranceFunds;\n    \n    mapping(uint256 => Investor) public index2Investor;\n    mapping(uint256 => Plan) public index2Plan;\n    mapping(address => uint256) public address2index;\n    mapping(uint256 => Stack) public index2Stack;\n    \n    Plan[6] internal plans;\n    \n    uint256 public latestReferredCode;\n    uint256 public latestStackId;\n    \n    struct Plan {\n        uint256 amount;\n    }\n    \n    struct Stack {\n        uint8 plan;\n        uint256[] investors;\n        uint256 startDate;\n        bool finished;\n    }\n    \n    struct Investor {\n        address payable addr;\n        uint256 referrer;\n        uint256[] investments;\n    }\n    \n    struct Investment {\n        uint256 planId;\n        uint256 stackId;\n    }\n    \n    event onInvest(address indexed _address, uint256 plan);\n    event onWithdrawProfit(address indexed _address, uint256 _plan, uint256 _stackId);\n    \n    constructor()  public{\n        _initPlans();\n        latestReferredCode = 1000;\n        latestStackId = 5000;\n    }\n    \n    function _initPlans() private {\n        plans[0] = Plan({amount : 0.25 ether});\n        plans[1] = Plan({amount : 0.5 ether});\n        plans[2] = Plan({amount : 1 ether});\n        plans[3] = Plan({amount : 5 ether});\n        plans[4] = Plan({amount : 10 ether});\n        plans[5] = Plan({amount : 50 ether});\n    }\n    \n    function withdrawProfit(uint256 _stackId) public {\n        require(index2Stack[_stackId].investors[0] == address2index[msg.sender], \"Only the first investor on the stack can withdraw the profit.\");\n        index2Stack[_stackId].finished = true;\n        \n        uint256 amount = plans[index2Stack[_stackId].plan].amount.mul(MAX_INVESTORS);\n        uint256 commissionAmount = amount.mul(COMMISSION_RATE).div(PERCENTS_DIVIDER);\n        uint256 developAmount = commissionAmount.mul(DEVELOPER_RATE).div(PERCENTS_DIVIDER);\n        uint256 reserveAmount = commissionAmount.mul(RESERVE_RATE).div(PERCENTS_DIVIDER);\n        uint256 marketingAmmount = commissionAmount.mul(MARKETING_RATE).div(PERCENTS_DIVIDER);\n        \n        msg.sender.transfer(amount);\n        developerAccount.transfer(developAmount);\n        reserveAccount.transfer(reserveAmount);\n        marketingAccount.transfer(marketingAmmount);\n        \n        modifyInvestorsAndCreateNewStacks(index2Stack[_stackId].plan, _stackId);\n        \n        emit onWithdrawProfit(msg.sender, index2Stack[_stackId].plan, _stackId);\n    }\n    \n    function modifyInvestorsAndCreateNewStacks(uint8 _plan, uint256 _stackId) private {\n        Investor storage investor = index2Investor[address2index[msg.sender]];\n        investor.investments[_plan] = 0;\n        \n        index2Stack[latestStackId] = Stack({\n            plan : _plan,\n            startDate : block.timestamp,\n            finished : false,\n            investors : new uint256[](3)\n        });\n        \n        index2Stack[latestStackId].investors[0] = index2Stack[_stackId].investors[1];\n        latestStackId++;\n        \n        index2Stack[latestStackId] = Stack({\n            plan : _plan,\n            startDate : block.timestamp,\n            finished : false,\n            investors : new uint256[](3)\n        });\n        \n        index2Stack[latestStackId].investors[0] = index2Stack[_stackId].investors[2];\n        latestStackId++;\n    }\n    \n    function calculateProfit(uint256 _plan) internal view returns(uint256){\n        uint256 amount = plans[_plan].amount.mul(MAX_INVESTORS);\n        uint256 commissionAmount = amount.mul(COMMISSION_RATE).div(PERCENTS_DIVIDER);\n        return amount.sub(commissionAmount);\n    }\n    \n    function invest(uint8 _plan, uint256 _referral) public payable {\n        require(msg.value == plans[_plan].amount, \"Amount other than required by plan\");\n        \n        uint256 _indexInvestor = address2index[msg.sender];\n        \n        if(_indexInvestor == 0) {\n            address2index[msg.sender] = latestReferredCode;\n            index2Investor[latestReferredCode] = Investor({\n                addr : msg.sender,\n                referrer : latestReferredCode,\n                investments : new uint256[](6)\n            });\n            _indexInvestor = latestReferredCode;\n            latestReferredCode++;\n        }\n        \n        _invest(_plan, _referral, _indexInvestor);\n        \n        emit onInvest(msg.sender, _plan);\n    }\n    \n    function _invest(uint8 _plan, uint256 _referral, uint256 _indexInvestor) private {\n        if(_referral == 0) {\n            index2Stack[latestStackId] = Stack({\n                plan : _plan,\n                startDate : block.timestamp,\n                finished : false,\n                investors : new uint256[](3)\n                \n            });\n            index2Stack[latestStackId].investors[0] = _indexInvestor;\n            index2Investor[_indexInvestor].investments[_plan] = latestStackId;\n            latestStackId++;\n        }else {\n            require(_referral >= 1000 , \"The investor who referred you does not exist\");\n            Stack storage stack = index2Stack[index2Investor[_referral].investments[_plan]];\n        \n            for(uint256 i;i<stack.investors.length;i++) {\n                if(stack.investors[i] == 0) {\n                    stack.investors[i] = _indexInvestor;\n                    break;\n                }\n            }\n        }\n        \n        totalStaked += plans[_plan].amount;\n    }\n    \n    function getInfoStack(uint256 _indexStack) public view returns (uint256, uint256[] memory) {\n        return (index2Stack[_indexStack].plan,index2Stack[_indexStack].investors);\n    }\n}\n\nlibrary SafeMath {\n\n    function add(uint256 a, uint256 b) internal pure returns (uint256) {\n        uint256 c = a + b;\n        require(c >= a, \"SafeMath: addition overflow\");\n\n        return c;\n    }\n\n    function sub(uint256 a, uint256 b) internal pure returns (uint256) {\n        require(b <= a, \"SafeMath: subtraction overflow\");\n        uint256 c = a - b;\n\n        return c;\n    }\n\n    function mul(uint256 a, uint256 b) internal pure returns (uint256) {\n        if (a == 0) {\n            return 0;\n        }\n\n        uint256 c = a * b;\n        require(c / a == b, \"SafeMath: multiplication overflow\");\n\n        return c;\n    }\n\n    function div(uint256 a, uint256 b) internal pure returns (uint256) {\n        require(b > 0, \"SafeMath: division by zero\");\n        uint256 c = a / b;\n\n        return c;\n    }\n}",
  "sourcePath": "/Users/brianramirez/Dev/stack-bnb/contracts/StackBNB.sol",
  "compiler": {
    "name": "solc",
    "version": "0.5.16+commit.9c3226ce.Emscripten.clang"
  },
  "schemaVersion": "3.4.1",
  "updatedAt": "2021-06-16T06:00:49.007Z",
  "devdoc": {
    "methods": {}
  },
  "userdoc": {
    "methods": {}
  }
}